{
  "_format": "hh-sol-artifact-1",
  "contractName": "EthereumConfig",
  "sourceName": "@fhevm/solidity/config/ZamaConfig.sol",
  "abi": [
    {
      "inputs": [],
      "stateMutability": "nonpayable",
      "type": "constructor"
    },
    {
      "inputs": [],
      "name": "protocolId",
      "outputs": [
        {
          "internalType": "uint256",
          "name": "",
          "type": "uint256"
        }
      ],
      "stateMutability": "pure",
      "type": "function"
    }
  ],
  "bytecode": "0x6080604052346100fe5760006060610015610103565b828152826020820152826040820152015260006060610032610103565b8281526020810183905260408082018490529101919091527f9e7b61f58c47dc699ac88507c4f5bb9f121c03808c5676a8078fe583e464970080546001600160a01b03199081169091557f9e7b61f58c47dc699ac88507c4f5bb9f121c03808c5676a8078fe583e46497018054821690557f9e7b61f58c47dc699ac88507c4f5bb9f121c03808c5676a8078fe583e46497028054821690557f9e7b61f58c47dc699ac88507c4f5bb9f121c03808c5676a8078fe583e46497038054909116905551607990816101398239f35b600080fd5b60405190608082016001600160401b0381118382101761012257604052565b634e487b7160e01b600052604160045260246000fdfe6080806040526004361015601257600080fd5b60003560e01c63da1f12ab14602657600080fd5b34603e576000366003190112603e5780600160209252f35b600080fdfea2646970667358221220cfc39aa9b756e104b5cb149d3e7a68c048364ea52ae895a986e00e614de5e4de64736f6c634300081b0033",
  "linkReferences": {},
  "deployedLinkReferences": {}
}