{
  "_format": "hh-sol-artifact-1",
  "contractName": "AthleteRegistration",
  "sourceName": "contracts/AthleteRegistration.sol",
  "abi": [
    {
      "inputs": [],
      "stateMutability": "nonpayable",
      "type": "constructor"
    },
    {
      "anonymous": false,
      "inputs": [
        {
          "indexed": true,
          "internalType": "address",
          "name": "athlete",
          "type": "address"
        },
        {
          "indexed": false,
          "internalType": "uint256",
          "name": "timestamp",
          "type": "uint256"
        }
      ],
      "name": "AthleteInfoUpdated",
      "type": "event"
    },
    {
      "anonymous": false,
      "inputs": [
        {
          "indexed": true,
          "internalType": "address",
          "name": "athlete",
          "type": "address"
        },
        {
          "indexed": false,
          "internalType": "uint256",
          "name": "timestamp",
          "type": "uint256"
        }
      ],
      "name": "AthleteRegistered",
      "type": "event"
    },
    {
      "inputs": [
        {
          "internalType": "enum AthleteRegistration.SportCategory",
          "name": "",
          "type": "uint8"
        }
      ],
      "name": "categoryMinAges",
      "outputs": [
        {
          "internalType": "uint32",
          "name": "",
          "type": "uint32"
        }
      ],
      "stateMutability": "view",
      "type": "function"
    },
    {
      "inputs": [],
      "name": "checkAgeRequirement",
      "outputs": [
        {
          "internalType": "ebool",
          "name": "",
          "type": "bytes32"
        }
      ],
      "stateMutability": "nonpayable",
      "type": "function"
    },
    {
      "inputs": [],
      "name": "confirmDecryption",
      "outputs": [],
      "stateMutability": "nonpayable",
      "type": "function"
    },
    {
      "inputs": [
        {
          "internalType": "address",
          "name": "athlete",
          "type": "address"
        },
        {
          "internalType": "string",
          "name": "name",
          "type": "string"
        },
        {
          "internalType": "uint256",
          "name": "age",
          "type": "uint256"
        },
        {
          "internalType": "uint256",
          "name": "contact",
          "type": "uint256"
        }
      ],
      "name": "finalizeResults",
      "outputs": [],
      "stateMutability": "nonpayable",
      "type": "function"
    },
    {
      "inputs": [],
      "name": "getAllEncryptedAthleteInfo",
      "outputs": [
        {
          "internalType": "euint32",
          "name": "encryptedName",
          "type": "bytes32"
        },
        {
          "internalType": "euint32",
          "name": "encryptedAge",
          "type": "bytes32"
        },
        {
          "internalType": "euint32",
          "name": "encryptedContact",
          "type": "bytes32"
        },
        {
          "internalType": "euint32",
          "name": "encryptedCategory",
          "type": "bytes32"
        },
        {
          "internalType": "uint256",
          "name": "timestamp",
          "type": "uint256"
        }
      ],
      "stateMutability": "view",
      "type": "function"
    },
    {
      "inputs": [
        {
          "internalType": "uint256",
          "name": "index",
          "type": "uint256"
        }
      ],
      "name": "getAthleteAtIndex",
      "outputs": [
        {
          "internalType": "address",
          "name": "",
          "type": "address"
        }
      ],
      "stateMutability": "view",
      "type": "function"
    },
    {
      "inputs": [
        {
          "internalType": "address",
          "name": "athlete",
          "type": "address"
        }
      ],
      "name": "getDecryptedAthleteInfo",
      "outputs": [
        {
          "internalType": "string",
          "name": "name",
          "type": "string"
        },
        {
          "internalType": "uint256",
          "name": "age",
          "type": "uint256"
        },
        {
          "internalType": "uint256",
          "name": "contact",
          "type": "uint256"
        },
        {
          "internalType": "uint256",
          "name": "sportCategory",
          "type": "uint256"
        },
        {
          "internalType": "bool",
          "name": "isDecrypted",
          "type": "bool"
        }
      ],
      "stateMutability": "view",
      "type": "function"
    },
    {
      "inputs": [],
      "name": "getEncryptedAge",
      "outputs": [
        {
          "internalType": "euint32",
          "name": "",
          "type": "bytes32"
        }
      ],
      "stateMutability": "view",
      "type": "function"
    },
    {
      "inputs": [],
      "name": "getEncryptedCategory",
      "outputs": [
        {
          "internalType": "euint32",
          "name": "",
          "type": "bytes32"
        }
      ],
      "stateMutability": "view",
      "type": "function"
    },
    {
      "inputs": [],
      "name": "getEncryptedContact",
      "outputs": [
        {
          "internalType": "euint32",
          "name": "",
          "type": "bytes32"
        }
      ],
      "stateMutability": "view",
      "type": "function"
    },
    {
      "inputs": [],
      "name": "getEncryptedName",
      "outputs": [
        {
          "internalType": "euint32",
          "name": "",
          "type": "bytes32"
        }
      ],
      "stateMutability": "view",
      "type": "function"
    },
    {
      "inputs": [
        {
          "internalType": "address",
          "name": "athlete",
          "type": "address"
        }
      ],
      "name": "getPlainAthleteInfo",
      "outputs": [
        {
          "internalType": "string",
          "name": "name",
          "type": "string"
        },
        {
          "internalType": "uint256",
          "name": "age",
          "type": "uint256"
        },
        {
          "internalType": "uint256",
          "name": "contact",
          "type": "uint256"
        },
        {
          "internalType": "uint256",
          "name": "sportCategory",
          "type": "uint256"
        }
      ],
      "stateMutability": "view",
      "type": "function"
    },
    {
      "inputs": [],
      "name": "getRegistrationTimestamp",
      "outputs": [
        {
          "internalType": "uint256",
          "name": "",
          "type": "uint256"
        }
      ],
      "stateMutability": "view",
      "type": "function"
    },
    {
      "inputs": [],
      "name": "getTotalAthletes",
      "outputs": [
        {
          "internalType": "uint256",
          "name": "",
          "type": "uint256"
        }
      ],
      "stateMutability": "view",
      "type": "function"
    },
    {
      "inputs": [],
      "name": "isAthleteRegistered",
      "outputs": [
        {
          "internalType": "bool",
          "name": "",
          "type": "bool"
        }
      ],
      "stateMutability": "view",
      "type": "function"
    },
    {
      "inputs": [],
      "name": "protocolId",
      "outputs": [
        {
          "internalType": "uint256",
          "name": "",
          "type": "uint256"
        }
      ],
      "stateMutability": "pure",
      "type": "function"
    },
    {
      "inputs": [
        {
          "internalType": "externalEuint32",
          "name": "_encryptedName",
          "type": "bytes32"
        },
        {
          "internalType": "bytes",
          "name": "_nameProof",
          "type": "bytes"
        },
        {
          "internalType": "externalEuint32",
          "name": "_encryptedAge",
          "type": "bytes32"
        },
        {
          "internalType": "bytes",
          "name": "_ageProof",
          "type": "bytes"
        },
        {
          "internalType": "externalEuint32",
          "name": "_encryptedContact",
          "type": "bytes32"
        },
        {
          "internalType": "bytes",
          "name": "_contactProof",
          "type": "bytes"
        },
        {
          "internalType": "externalEuint32",
          "name": "_encryptedCategory",
          "type": "bytes32"
        },
        {
          "internalType": "bytes",
          "name": "_categoryProof",
          "type": "bytes"
        }
      ],
      "name": "registerAthlete",
      "outputs": [],
      "stateMutability": "nonpayable",
      "type": "function"
    },
    {
      "inputs": [
        {
          "internalType": "string",
          "name": "_name",
          "type": "string"
        },
        {
          "internalType": "uint32",
          "name": "_age",
          "type": "uint32"
        },
        {
          "internalType": "uint32",
          "name": "_contact",
          "type": "uint32"
        },
        {
          "internalType": "enum AthleteRegistration.SportCategory",
          "name": "_category",
          "type": "uint8"
        }
      ],
      "name": "registerAthleteForTesting",
      "outputs": [],
      "stateMutability": "nonpayable",
      "type": "function"
    },
    {
      "inputs": [
        {
          "internalType": "address",
          "name": "_athlete",
          "type": "address"
        }
      ],
      "name": "testIsRegistered",
      "outputs": [
        {
          "internalType": "bool",
          "name": "",
          "type": "bool"
        }
      ],
      "stateMutability": "view",
      "type": "function"
    }
  ],
  "bytecode": "0x60806040523461025a576000606061001561025f565b8281528260208201528260408201520152731364cbbf2cdf5032c47d8226a6f6fbd2afcdacac606061004561025f565b7350157cffd6bbfa2dece204a89ec419c23ef5755d80825273cd3ab3bd6bcc0c0bf3e27912a92043e817b1cf69602080840182905273a02cda4ca3a71d7c46997716f4283aa851c28812604080860182905295909401959095527f9e7b61f58c47dc699ac88507c4f5bb9f121c03808c5676a8078fe583e464970080546001600160a01b031990811690931790557f9e7b61f58c47dc699ac88507c4f5bb9f121c03808c5676a8078fe583e46497018054831690911790557f9e7b61f58c47dc699ac88507c4f5bb9f121c03808c5676a8078fe583e4649702805482169092179091557f9e7b61f58c47dc699ac88507c4f5bb9f121c03808c5676a8078fe583e46497038054909116731364cbbf2cdf5032c47d8226a6f6fbd2afcdacac1790556000918290527fad3228b676f7d3cd4284a5443f17f1962b36e491b30a40b2405849e597ba5fb5805463ffffffff1990811660089081179092557fada5013122d395ba3c54772283fb069b10426056ef8ca54750cb9bb552a59e7d80548216600a1790557fabbb5caa7dda850e60932de0934eb1f9d0f59695050f761dc64e443e5030a56980548216600c1790557f101e368776582e57ab3d116ffe2517c0a585cd5b23174b01e275c2d8329c3d8380548216600e17905560049093527f52d75039926638d3c558b2bdefb945d5be8dae29dedd1c313212a4d472d9fde58054909316179091555161175090816102958239f35b600080fd5b60405190608082016001600160401b0381118382101761027e57604052565b634e487b7160e01b600052604160045260246000fdfe608080604052600436101561001357600080fd5b60003560e01c90816308c52145146110aa575080630e2b21e41461106f57806320bf34dd14610fd7578063266b99db14610f7c5780632948cd3c14610ac857806343e4687314610a865780634f0235be146106a35780635289b1591461065c57806353b7fe9b1461061257806365db4b051461049457806388b12b1a146104765780638ee164b6146103ba578063a7063c6514610370578063b5e74e6d146102b9578063bba6b0181461026f578063d9d09241146101cf578063da1f12ab146101b2578063e13658c31461013f5763eacf824e146100f057600080fd5b3461013a57600036600319011261013a5733600052600160205261011e60ff6005604060002001541661115c565b3360005260016020526020600360406000200154604051908152f35b600080fd5b3461013a57600036600319011261013a5733600052600160205261016d60ff6005604060002001541661115c565b33600052600160205260a06040600020805490600181015490600281015460046003830154920154926040519485526020850152604084015260608301526080820152f35b3461013a57600036600319011261013a5760206040516127118152f35b3461013a57602036600319011261013a576001600160a01b036101f0611105565b1680600052600160205261020e60ff6005604060002001541661115c565b60005260016020526102526040600020600781015460088201549161023d600660ff6009840154169201611330565b9260405194859460a0865260a086019061111b565b926020850152604084015260006060840152151560808301520390f35b3461013a57600036600319011261013a5733600052600160205261029d60ff6005604060002001541661115c565b3360005260016020526020600260406000200154604051908152f35b3461013a57602036600319011261013a57600435600254811015610335576000906002548110156103215760029091527f405787fa12a823e0f2b7631cc41b3ba8828b3321ca811111fa75cd3aa3bb5ace01546040516001600160a01b039091168152602090f35b634e487b7160e01b82526032600452602482fd5b60405162461bcd60e51b8152602060048201526013602482015272496e646578206f7574206f6620626f756e647360681b6044820152606490fd5b3461013a57600036600319011261013a5733600052600160205261039e60ff6005604060002001541661115c565b3360005260016020526020600460406000200154604051908152f35b3461013a57602036600319011261013a576001600160a01b036103db611105565b168060005260016020526103f960ff6005604060002001541661115c565b60005260016020526040600020600b81015460ff8160401c169060058210156104605761042b600a6104459401611330565b9163ffffffff60405194859460808652608086019061111b565b92818116602086015260201c16604084015260608301520390f35b634e487b7160e01b600052602160045260246000fd5b3461013a57600036600319011261013a576020600254604051908152f35b3461013a57608036600319011261013a576104ad611105565b6024356001600160401b03811161013a576104cc9036906004016110d8565b909160018060a01b0316908160005260016020526104f460ff6005604060002001541661115c565b8160005260016020526006604060002001906001600160401b0381116105fc57610528816105228454611224565b8461125e565b6000601f821160011461059957819061055a93949560009261058e575b50508160011b916000199060031b1c19161790565b90555b600090815260016020819052604090912060443560078201556064356008820155600901805460ff19169091179055005b013590508580610545565b601f198216948382526020822091805b8781106105e45750836001959697106105ca575b505050811b01905561055d565b0135600019600384901b60f8161c191690558480806105bd565b909260206001819286860135815501940191016105a9565b634e487b7160e01b600052604160045260246000fd5b3461013a57600036600319011261013a5733600052600160205261064060ff6005604060002001541661115c565b3360005260016020526020600160406000200154604051908152f35b3461013a57600036600319011261013a5733600052600160205261068a60ff6005604060002001541661115c565b3360005260016020526020604060002054604051908152f35b3461013a57608036600319011261013a576004356001600160401b03811161013a576106d39036906004016110d8565b60243563ffffffff811680910361013a5760443563ffffffff811680910361013a576005606435101561013a5733600052600160205260406000206005015460ff161592604051610723816111a1565b600081526020810195600087526040820192600084526060830191600083526080840142815260a08501600181523661075d9085856111de565b9060c0870191825260e08701928a84526101008801948a865261012089019660018852369061078b926111de565b96610140890197885261016089019b8c5261018089019a8b526101a089019960009e8f6064358d523381526001602052604090209a518b555160018b01555160028a015551600389015551600488015551151560058701906107f8919060ff801983541691151516179055565b51805160068701916001600160401b038211610a72576108228261081c8554611224565b8561125e565b6020908d601f8411600114610a08576108809796959493610859939092836109fd5750508160011b916000199060031b1c19161790565b90555b516007860155516008850155511515600984019060ff801983541691151516179055565b518051600a8301916001600160401b0382116109e9576108a48261081c8554611224565b602090601f831160011461097d578263ffffffff9593600b95936108dd938d926109725750508160011b916000199060031b1c19161790565b90555b0193511667ffffffff000000008454935160201b169151600581101561095e5760ff60401b9060401b169268ffffffffffffffffff19161717179055610950575b6040514281527f5d2c303dc9780a257174732bf974775fd458c3cf846c9324d4693369b2ce090d60203392a280f35b610959336112b0565b610921565b634e487b7160e01b87526021600452602487fd5b015190508c80610545565b838a52818a209190601f1984168b5b8181106109d1575092600192859263ffffffff9896600b9896106109b8575b505050811b0190556108e0565b015160001960f88460031b161c191690558b80806109ab565b9293602060018192878601518155019501930161098c565b634e487b7160e01b89526041600452602489fd5b015190508f80610545565b9190601f198416858452828420935b818110610a5a57509160019391856108809a999897969410610a41575b505050811b01905561085c565b015160001960f88460031b161c191690558e8080610a34565b92936020600181928786015181550195019301610a17565b634e487b7160e01b8d52604160045260248dfd5b3461013a57602036600319011261013a576001600160a01b03610aa7611105565b166000526001602052602060ff600560406000200154166040519015158152f35b3461013a5761010036600319011261013a576024356001600160401b03811161013a57610af99036906004016110d8565b906064356001600160401b03811161013a57610b199036906004016110d8565b9060a4356001600160401b03811161013a57610b399036906004016110d8565b9460e435926001600160401b03841161013a57610b9e610bae93610b96610b8e610ba694610b86610b7e610b74610bb69b36906004016110d8565b9d909936916111de565b60043561153c565b9936916111de565b60443561153c565b9836916111de565b60843561153c565b9436916111de565b60c43561153c565b90610bc8610bc26113d4565b856114b5565b5033600052600160205260ff60056040600020015416159260405191610bed836111a1565b808352856020840152816040840152836060840152426080840152600160a0840152602095604051610c1f88826111bd565b6000815260c0850152600060e085015260006101008501526000610120850152604051610c4c88826111bd565b600081526101408501526000610160850152600061018085015260046101a0850152336000526001875260406000208451815560208501516001820155604085015160028201556060850151600382015560808501516004820155610cc660a08601511515600583019060ff801983541691151516179055565b60c08501518051906001600160401b0382116105fc57610cf682610ced6006860154611224565b6006860161125e565b8990601f8311600114610f0f57610d25929160009183610f045750508160011b916000199060031b1c19161790565b60068201555b60e085015160078201556101008501516008820155610d606101208601511515600983019060ff801983541691151516179055565b600a81016101408601518051906001600160401b0382116105fc57610d898261081c8554611224565b8a90601f8311600114610e98579180610dbd92600b969594600092610e8d5750508160011b916000199060031b1c19161790565b90555b0163ffffffff61016086015116928154976101a067ffffffff000000006101808901518c1b1697015192600584101561046057610e5299610e4b98610e4b9760ff60401b610e4b9760401b169268ffffffffffffffffff19161717179055610e7f575b610e2d338261166f565b610e37338461166f565b610e41338661166f565b610e4b338861166f565b309061166f565b7f5d2c303dc9780a257174732bf974775fd458c3cf846c9324d4693369b2ce090d604051914283523392a2005b610e88336112b0565b610e23565b015190508d80610545565b60008481528c8120929190601f198516908e5b828210610eec575050916001939185600b9897969410610ed3575b505050811b019055610dc0565b015160001960f88460031b161c191690558c8080610ec6565b80600186978294978701518155019601940190610eab565b015190508b80610545565b90601f19831691600685016000528b6000209260005b8d828210610f66575050908460019594939210610f4d575b505050811b016006820155610d2b565b015160001960f88460031b161c191690558a8080610f3d565b6001859682939686015181550195019301610f25565b3461013a57600036600319011261013a57336000526001602052610faa60ff6005604060002001541661115c565b3360005260016020526020610fcf60406000206001610fc76113d4565b9101546114b5565b604051908152f35b3461013a57600036600319011261013a5733156110395733600052600160205261100b60ff6005604060002001541661115c565b6040514281527f5d2c303dc9780a257174732bf974775fd458c3cf846c9324d4693369b2ce090d60203392a2005b60405162461bcd60e51b815260206004820152600e60248201526d24b73b30b634b21031b0b63632b960911b6044820152606490fd5b3461013a57602036600319011261013a57600435600581101561013a576000526000602052602063ffffffff60406000205416604051908152f35b3461013a57600036600319011261013a57602090336000526001825260ff6005604060002001541615158152f35b9181601f8401121561013a578235916001600160401b03831161013a576020838186019501011161013a57565b600435906001600160a01b038216820361013a57565b919082519283825260005b848110611147575050826000602080949584010152601f8019910116010190565b80602080928401015182828601015201611126565b1561116357565b60405162461bcd60e51b8152602060048201526016602482015275105d1a1b195d19481b9bdd081c9959da5cdd195c995960521b6044820152606490fd5b6101c081019081106001600160401b038211176105fc57604052565b90601f801991011681019081106001600160401b038211176105fc57604052565b9291926001600160401b0382116105fc5760405191611207601f8201601f1916602001846111bd565b82948184528183011161013a578281602093846000960137010152565b90600182811c92168015611254575b602083101461123e57565b634e487b7160e01b600052602260045260246000fd5b91607f1691611233565b601f821161126b57505050565b6000526020600020906020601f840160051c830193106112a6575b601f0160051c01905b81811061129a575050565b6000815560010161128f565b9091508190611286565b600254680100000000000000008110156105fc5760018101600255600060025482101561131c57600290527f405787fa12a823e0f2b7631cc41b3ba8828b3321ca811111fa75cd3aa3bb5ace0180546001600160a01b0319166001600160a01b03909216919091179055565b634e487b7160e01b81526032600452602490fd5b906040519182600082549261134484611224565b80845293600181169081156113b2575060011461136b575b50611369925003836111bd565b565b90506000929192526020600020906000915b818310611396575050906020611369928201013861135c565b602091935080600191548385890101520191019091849261137d565b90506020925061136994915060ff191682840152151560051b8201013861135c565b6000602060018060a01b036000805160206116fb8339815191525416604460405180948193639cd07acb60e01b8352600e6004840152600460248401525af190811561145457600091611425575090565b90506020813d60201161144c575b81611440602093836111bd565b8101031261013a575190565b3d9150611433565b6040513d6000823e3d90fd5b6000805160206116fb83398151915254604051639cd07acb60e01b81526000600480830182905260248301529091602091839160449183916001600160a01b03165af190811561145457600091611425575090565b90811561152c575b801561151a575b602090606460018060a01b036000805160206116fb83398151915254169360006040519586948593631391547f60e01b8552600485015260248401528160448401525af190811561145457600091611425575090565b506020611525611460565b90506114c4565b9050611536611460565b906114bd565b602061158e9260009260018060a01b036000805160206116fb8339815191525416908460405180978195829463196d0b9b60e01b8452600484015233602484015260806044840152608483019061111b565b6004606483015203925af191821561166257819261162e575b507f9e7b61f58c47dc699ac88507c4f5bb9f121c03808c5676a8078fe583e4649700546001600160a01b0316803b1561162a57604051630f8e573b60e21b8152600481018490523360248201529082908290604490829084905af1801561161f5761161157505090565b8161161b916111bd565b5090565b6040513d84823e3d90fd5b5080fd5b9091506020813d60201161165a575b8161164a602093836111bd565b8101031261162a575190386115a7565b3d915061163d565b50604051903d90823e3d90fd5b7f9e7b61f58c47dc699ac88507c4f5bb9f121c03808c5676a8078fe583e464970054600092916001600160a01b0390911690813b156116f657604051635ca4b5b160e11b815260048101919091526001600160a01b0392909216602483015282908290604490829084905af1801561161f576116e9575050565b816116f3916111bd565b50565b8380fdfe9e7b61f58c47dc699ac88507c4f5bb9f121c03808c5676a8078fe583e4649701a264697066735822122036e8f5fdf687b354c842cd3764a59967c70bad8f7b31d722c075449cca4ea77f64736f6c634300081b0033",
  "linkReferences": {},
  "deployedLinkReferences": {}
}