{
  "_format": "hh-sol-artifact-1",
  "contractName": "AthleteRegistration",
  "sourceName": "contracts/AthleteRegistration.sol",
  "abi": [
    {
      "inputs": [],
      "stateMutability": "nonpayable",
      "type": "constructor"
    },
    {
      "anonymous": false,
      "inputs": [
        {
          "indexed": true,
          "internalType": "address",
          "name": "athlete",
          "type": "address"
        },
        {
          "indexed": false,
          "internalType": "uint256",
          "name": "timestamp",
          "type": "uint256"
        }
      ],
      "name": "AthleteInfoUpdated",
      "type": "event"
    },
    {
      "anonymous": false,
      "inputs": [
        {
          "indexed": true,
          "internalType": "address",
          "name": "athlete",
          "type": "address"
        },
        {
          "indexed": false,
          "internalType": "uint256",
          "name": "timestamp",
          "type": "uint256"
        }
      ],
      "name": "AthleteRegistered",
      "type": "event"
    },
    {
      "inputs": [
        {
          "internalType": "address[]",
          "name": "athletes",
          "type": "address[]"
        },
        {
          "internalType": "externalEuint32[]",
          "name": "encryptedNames",
          "type": "bytes32[]"
        },
        {
          "internalType": "externalEuint32[]",
          "name": "encryptedAges",
          "type": "bytes32[]"
        },
        {
          "internalType": "externalEuint32[]",
          "name": "encryptedContacts",
          "type": "bytes32[]"
        },
        {
          "internalType": "externalEuint32[]",
          "name": "encryptedCategories",
          "type": "bytes32[]"
        },
        {
          "internalType": "bytes",
          "name": "inputProof",
          "type": "bytes"
        }
      ],
      "name": "batchRegisterAthletes",
      "outputs": [],
      "stateMutability": "nonpayable",
      "type": "function"
    },
    {
      "inputs": [
        {
          "internalType": "enum AthleteRegistration.SportCategory",
          "name": "",
          "type": "uint8"
        }
      ],
      "name": "categoryMinAges",
      "outputs": [
        {
          "internalType": "uint32",
          "name": "",
          "type": "uint32"
        }
      ],
      "stateMutability": "view",
      "type": "function"
    },
    {
      "inputs": [],
      "name": "checkAgeRequirement",
      "outputs": [
        {
          "internalType": "ebool",
          "name": "",
          "type": "bytes32"
        }
      ],
      "stateMutability": "nonpayable",
      "type": "function"
    },
    {
      "inputs": [],
      "name": "confirmDecryption",
      "outputs": [],
      "stateMutability": "nonpayable",
      "type": "function"
    },
    {
      "inputs": [
        {
          "internalType": "address",
          "name": "athlete",
          "type": "address"
        },
        {
          "internalType": "string",
          "name": "name",
          "type": "string"
        },
        {
          "internalType": "uint256",
          "name": "age",
          "type": "uint256"
        },
        {
          "internalType": "uint256",
          "name": "contact",
          "type": "uint256"
        }
      ],
      "name": "finalizeResults",
      "outputs": [],
      "stateMutability": "nonpayable",
      "type": "function"
    },
    {
      "inputs": [],
      "name": "getAllEncryptedAthleteInfo",
      "outputs": [
        {
          "internalType": "euint32",
          "name": "encryptedName",
          "type": "bytes32"
        },
        {
          "internalType": "euint32",
          "name": "encryptedAge",
          "type": "bytes32"
        },
        {
          "internalType": "euint32",
          "name": "encryptedContact",
          "type": "bytes32"
        },
        {
          "internalType": "euint32",
          "name": "encryptedCategory",
          "type": "bytes32"
        },
        {
          "internalType": "uint256",
          "name": "timestamp",
          "type": "uint256"
        }
      ],
      "stateMutability": "view",
      "type": "function"
    },
    {
      "inputs": [
        {
          "internalType": "uint256",
          "name": "index",
          "type": "uint256"
        }
      ],
      "name": "getAthleteAtIndex",
      "outputs": [
        {
          "internalType": "address",
          "name": "",
          "type": "address"
        }
      ],
      "stateMutability": "view",
      "type": "function"
    },
    {
      "inputs": [
        {
          "internalType": "address",
          "name": "athlete",
          "type": "address"
        }
      ],
      "name": "getDecryptedAthleteInfo",
      "outputs": [
        {
          "internalType": "string",
          "name": "name",
          "type": "string"
        },
        {
          "internalType": "uint256",
          "name": "age",
          "type": "uint256"
        },
        {
          "internalType": "uint256",
          "name": "contact",
          "type": "uint256"
        },
        {
          "internalType": "uint256",
          "name": "sportCategory",
          "type": "uint256"
        },
        {
          "internalType": "bool",
          "name": "isDecrypted",
          "type": "bool"
        }
      ],
      "stateMutability": "view",
      "type": "function"
    },
    {
      "inputs": [],
      "name": "getEncryptedAge",
      "outputs": [
        {
          "internalType": "euint32",
          "name": "",
          "type": "bytes32"
        }
      ],
      "stateMutability": "view",
      "type": "function"
    },
    {
      "inputs": [],
      "name": "getEncryptedCategory",
      "outputs": [
        {
          "internalType": "euint32",
          "name": "",
          "type": "bytes32"
        }
      ],
      "stateMutability": "view",
      "type": "function"
    },
    {
      "inputs": [],
      "name": "getEncryptedContact",
      "outputs": [
        {
          "internalType": "euint32",
          "name": "",
          "type": "bytes32"
        }
      ],
      "stateMutability": "view",
      "type": "function"
    },
    {
      "inputs": [],
      "name": "getEncryptedName",
      "outputs": [
        {
          "internalType": "euint32",
          "name": "",
          "type": "bytes32"
        }
      ],
      "stateMutability": "view",
      "type": "function"
    },
    {
      "inputs": [
        {
          "internalType": "address",
          "name": "athlete",
          "type": "address"
        }
      ],
      "name": "getPlainAthleteInfo",
      "outputs": [
        {
          "internalType": "string",
          "name": "name",
          "type": "string"
        },
        {
          "internalType": "uint256",
          "name": "age",
          "type": "uint256"
        },
        {
          "internalType": "uint256",
          "name": "contact",
          "type": "uint256"
        },
        {
          "internalType": "uint256",
          "name": "sportCategory",
          "type": "uint256"
        }
      ],
      "stateMutability": "view",
      "type": "function"
    },
    {
      "inputs": [],
      "name": "getRegistrationStatistics",
      "outputs": [
        {
          "internalType": "uint256",
          "name": "totalAthletes",
          "type": "uint256"
        },
        {
          "internalType": "uint256",
          "name": "decryptedCount",
          "type": "uint256"
        },
        {
          "internalType": "uint256",
          "name": "averageRegistrationTime",
          "type": "uint256"
        }
      ],
      "stateMutability": "view",
      "type": "function"
    },
    {
      "inputs": [],
      "name": "getRegistrationTimestamp",
      "outputs": [
        {
          "internalType": "uint256",
          "name": "",
          "type": "uint256"
        }
      ],
      "stateMutability": "view",
      "type": "function"
    },
    {
      "inputs": [],
      "name": "getTotalAthletes",
      "outputs": [
        {
          "internalType": "uint256",
          "name": "",
          "type": "uint256"
        }
      ],
      "stateMutability": "view",
      "type": "function"
    },
    {
      "inputs": [],
      "name": "isAthleteRegistered",
      "outputs": [
        {
          "internalType": "bool",
          "name": "",
          "type": "bool"
        }
      ],
      "stateMutability": "view",
      "type": "function"
    },
    {
      "inputs": [],
      "name": "protocolId",
      "outputs": [
        {
          "internalType": "uint256",
          "name": "",
          "type": "uint256"
        }
      ],
      "stateMutability": "pure",
      "type": "function"
    },
    {
      "inputs": [
        {
          "internalType": "externalEuint32",
          "name": "_encryptedName",
          "type": "bytes32"
        },
        {
          "internalType": "bytes",
          "name": "_nameProof",
          "type": "bytes"
        },
        {
          "internalType": "externalEuint32",
          "name": "_encryptedAge",
          "type": "bytes32"
        },
        {
          "internalType": "bytes",
          "name": "_ageProof",
          "type": "bytes"
        },
        {
          "internalType": "externalEuint32",
          "name": "_encryptedContact",
          "type": "bytes32"
        },
        {
          "internalType": "bytes",
          "name": "_contactProof",
          "type": "bytes"
        },
        {
          "internalType": "externalEuint32",
          "name": "_encryptedCategory",
          "type": "bytes32"
        },
        {
          "internalType": "bytes",
          "name": "_categoryProof",
          "type": "bytes"
        }
      ],
      "name": "registerAthlete",
      "outputs": [],
      "stateMutability": "nonpayable",
      "type": "function"
    },
    {
      "inputs": [
        {
          "internalType": "string",
          "name": "_name",
          "type": "string"
        },
        {
          "internalType": "uint32",
          "name": "_age",
          "type": "uint32"
        },
        {
          "internalType": "uint32",
          "name": "_contact",
          "type": "uint32"
        },
        {
          "internalType": "enum AthleteRegistration.SportCategory",
          "name": "_category",
          "type": "uint8"
        }
      ],
      "name": "registerAthleteForTesting",
      "outputs": [],
      "stateMutability": "nonpayable",
      "type": "function"
    },
    {
      "inputs": [
        {
          "internalType": "address",
          "name": "_athlete",
          "type": "address"
        }
      ],
      "name": "testIsRegistered",
      "outputs": [
        {
          "internalType": "bool",
          "name": "",
          "type": "bool"
        }
      ],
      "stateMutability": "view",
      "type": "function"
    },
    {
      "inputs": [],
      "name": "version",
      "outputs": [
        {
          "internalType": "string",
          "name": "",
          "type": "string"
        }
      ],
      "stateMutability": "pure",
      "type": "function"
    }
  ],
  "bytecode": "0x60806040523461025a576000606061001561025f565b8281528260208201528260408201520152731364cbbf2cdf5032c47d8226a6f6fbd2afcdacac606061004561025f565b73687820221192c5b662b25367f70076a37bc79b6c80825273848b0066793bcc60346da1f49049357399b8d595602080840182905273a02cda4ca3a71d7c46997716f4283aa851c28812604080860182905295909401959095527f9e7b61f58c47dc699ac88507c4f5bb9f121c03808c5676a8078fe583e464970080546001600160a01b031990811690931790557f9e7b61f58c47dc699ac88507c4f5bb9f121c03808c5676a8078fe583e46497018054831690911790557f9e7b61f58c47dc699ac88507c4f5bb9f121c03808c5676a8078fe583e4649702805482169092179091557f9e7b61f58c47dc699ac88507c4f5bb9f121c03808c5676a8078fe583e46497038054909116731364cbbf2cdf5032c47d8226a6f6fbd2afcdacac1790556000918290527fad3228b676f7d3cd4284a5443f17f1962b36e491b30a40b2405849e597ba5fb5805463ffffffff1990811660089081179092557fada5013122d395ba3c54772283fb069b10426056ef8ca54750cb9bb552a59e7d80548216600a1790557fabbb5caa7dda850e60932de0934eb1f9d0f59695050f761dc64e443e5030a56980548216600c1790557f101e368776582e57ab3d116ffe2517c0a585cd5b23174b01e275c2d8329c3d8380548216600e17905560049093527f52d75039926638d3c558b2bdefb945d5be8dae29dedd1c313212a4d472d9fde580549093161790915551611f9f90816102958239f35b600080fd5b60405190608082016001600160401b0381118382101761027e57604052565b634e487b7160e01b600052604160045260246000fdfe608080604052600436101561001357600080fd5b60003560e01c90816308c5214514611824575080630e2b21e4146117e957806320bf34dd14611763578063262f3b4514611602578063266b99db146115a75780632948cd3c1461110e57806343e46873146110cc5780634f0235be14610cfb5780635289b15914610cb457806353b7fe9b14610c6a57806354fd4d5014610c1f57806365db4b0514610ab857806388b12b1a14610a9a5780638ee164b6146109f4578063a7063c65146109aa578063b3904d0914610357578063b5e74e6d146102da578063bba6b01814610290578063d9d09241146101f0578063da1f12ab146101d3578063e13658c3146101605763eacf824e1461011157600080fd5b3461015b57600036600319011261015b5733600052600160205261013f60ff60056040600020015416611906565b3360005260016020526020600360406000200154604051908152f35b600080fd5b3461015b57600036600319011261015b5733600052600160205261018e60ff60056040600020015416611906565b33600052600160205260a06040600020805490600181015490600281015460046003830154920154926040519485526020850152604084015260608301526080820152f35b3461015b57600036600319011261015b5760206040516127118152f35b3461015b57602036600319011261015b576001600160a01b0361021161187f565b1680600052600160205261022f60ff60056040600020015416611906565b60005260016020526102736040600020600781015460088201549161025e600660ff6009840154169201611b0b565b9260405194859460a0865260a0860190611895565b926020850152604084015260006060840152151560808301520390f35b3461015b57600036600319011261015b573360005260016020526102be60ff60056040600020015416611906565b3360005260016020526020600260406000200154604051908152f35b3461015b57602036600319011261015b5760043560025481101561031c5761030360209161194b565b905460405160039290921b1c6001600160a01b03168152f35b60405162461bcd60e51b8152602060048201526013602482015272496e646578206f7574206f6620626f756e647360681b6044820152606490fd5b3461015b5760c036600319011261015b576004356001600160401b03811161015b576103879036906004016118d6565b6024356001600160401b03811161015b576103a69036906004016118d6565b6044356001600160401b03811161015b576103c59036906004016118d6565b916064356001600160401b03811161015b576103e59036906004016118d6565b9290916084356001600160401b03811161015b576104079036906004016118d6565b9360a4356001600160401b03811161015b57610427903690600401611852565b949093610435818c14611baf565b610440898c14611baf565b61044b888c14611baf565b610456878c14611baf565b8a1561096557600a8b116109035760209b9a60005b81811061047457005b61047f81838f611bf3565b356001600160a01b038116810361015b5760018f818060a01b0383166000525260ff600560406000200154166108bf57908e918c8c8f8c8c8f92878d8f928e838f816104cc918195611bf3565b356104d8368a8a6119b9565b6104e191611d6b565b9a6104eb92611bf3565b356104f73688886119b9565b61050091611d6b565b9761050a92611bf3565b356105163686866119b9565b61051f91611d6b565b9461052992611bf3565b35913690610536926119b9565b61053f91611d6b565b6040519361054c8561197c565b845286840192835260408401918252606084019081526080840142815260a085019160018352604051936105808a86611998565b600080865260c0880195865260e0880181905261010088018190526101208801526040516105ae8b82611998565b600081526101408801526101608701600090526101808701600090526101a0870160009052600160a01b60019003881660005260018a52604060002095875187555160018701555160028601555160038501555160048401555115156005830190610624919060ff801983541691151516179055565b518051906001600160401b038211610838576106508261064760068601546119ff565b60068601611a39565b8690601f831160011461084e576106809291600091836107bb575b50508160011b916000199060031b1c19161790565b60068201555b60e0820151600782015561010082015160088201556106bb6101208301511515600983019060ff801983541691151516179055565b6101408201518051906001600160401b038211610838576106ec826106e3600a8601546119ff565b600a8601611a39565b8690601f83116001146107c657918061071f92600b95946000926107bb5750508160011b916000199060031b1c19161790565b600a8201555b019363ffffffff610160830151169480546101a067ffffffff00000000610180860151851b169401519360058510156107a55760019760ff60401b600080516020611f4a8339815191529660401b169268ffffffffffffffffff1916171717905561078f83611a8b565b60405192428452858060a01b031692a20161046b565b634e487b7160e01b600052602160045260246000fd5b01519050388061066b565b90600a8401600052876000209160005b89601f1986168210610822575050918391600193600b9695601f19811610610809575b505050811b01600a820155610725565b015160001960f88460031b161c191690553880806107f9565b60018495829395850151815501940192016107d6565b634e487b7160e01b600052604160045260246000fd5b91906006840160005287600020906000935b89601f19851686106108a657506001945083601f1981161061088d575b505050811b016006820155610686565b015160001960f88460031b161c1916905538808061087d565b8282015184559485019460019093019290910190610860565b60648f6040519062461bcd60e51b82526004820152601a60248201527f4174686c65746520616c726561647920726567697374657265640000000000006044820152fd5b60405162461bcd60e51b815260206004820152603460248201527f42617463682073697a65206c696d6974656420746f203130206174686c6574656044820152737320666f722067617320656666696369656e637960601b6064820152608490fd5b60405162461bcd60e51b815260206004820152601b60248201527f43616e6e6f7420726567697374657220656d70747920626174636800000000006044820152606490fd5b3461015b57600036600319011261015b573360005260016020526109d860ff60056040600020015416611906565b3360005260016020526020600460406000200154604051908152f35b3461015b57602036600319011261015b576001600160a01b03610a1561187f565b16806000526001602052610a3360ff60056040600020015416611906565b60005260016020526040600020600b81015460ff8160401c169060058210156107a557610a65600a610a7f9401611b0b565b9163ffffffff604051948594608086526080860190611895565b92818116602086015260201c16604084015260608301520390f35b3461015b57600036600319011261015b576020600254604051908152f35b3461015b57608036600319011261015b57610ad161187f565b6024356001600160401b03811161015b57610af0903690600401611852565b909160018060a01b031690816000526001602052610b1860ff60056040600020015416611906565b8160005260016020526006604060002001906001600160401b03811161083857610b4c81610b4684546119ff565b84611a39565b6000601f8211600114610bbc578190610b7d939495600092610bb15750508160011b916000199060031b1c19161790565b90555b600090815260016020819052604090912060443560078201556064356008820155600901805460ff19169091179055005b01359050858061066b565b601f198216948382526020822091805b878110610c07575083600195969710610bed575b505050811b019055610b80565b0135600019600384901b60f8161c19169055848080610be0565b90926020600181928686013581550194019101610bcc565b3461015b57600036600319011261015b57610c666040805190610c428183611998565b60058252640312e302e360dc1b602083015251918291602083526020830190611895565b0390f35b3461015b57600036600319011261015b57336000526001602052610c9860ff60056040600020015416611906565b3360005260016020526020600160406000200154604051908152f35b3461015b57600036600319011261015b57336000526001602052610ce260ff60056040600020015416611906565b3360005260016020526020604060002054604051908152f35b3461015b57608036600319011261015b576004356001600160401b03811161015b57610d2b903690600401611852565b60243563ffffffff811680910361015b5760443563ffffffff811680910361015b576005606435101561015b5733600052600160205260406000206005015460ff161592604051610d7b8161197c565b600081526020810195600087526040820192600084526060830191600083526080840142815260a085016001815236610db59085856119b9565b9060c0870191825260e08701928a84526101008801948a8652610120890196600188523690610de3926119b9565b96610140890197885261016089019b8c5261018089019a8b526101a089019960009e8f6064358d523381526001602052604090209a518b555160018b01555160028a01555160038901555160048801555115156005870190610e50919060ff801983541691151516179055565b51805160068701916001600160401b0382116110b857610e7a82610e7485546119ff565b85611a39565b6020908d601f841160011461104e57610ed89796959493610eb1939092836110435750508160011b916000199060031b1c19161790565b90555b516007860155516008850155511515600984019060ff801983541691151516179055565b518051600a8301916001600160401b03821161102f57610efc82610e7485546119ff565b602090601f8311600114610fc3578263ffffffff9593600b9593610f35938d92610fb85750508160011b916000199060031b1c19161790565b90555b0193511667ffffffff000000008454935160201b1691516005811015610fa45760ff60401b9060401b169268ffffffffffffffffff19161717179055610f96575b604051428152600080516020611f4a83398151915260203392a280f35b610f9f33611a8b565b610f79565b634e487b7160e01b87526021600452602487fd5b015190508c8061066b565b838a52818a209190601f1984168b5b818110611017575092600192859263ffffffff9896600b989610610ffe575b505050811b019055610f38565b015160001960f88460031b161c191690558b8080610ff1565b92936020600181928786015181550195019301610fd2565b634e487b7160e01b89526041600452602489fd5b015190508f8061066b565b9190601f198416858452828420935b8181106110a05750916001939185610ed89a999897969410611087575b505050811b019055610eb4565b015160001960f88460031b161c191690558e808061107a565b9293602060018192878601518155019501930161105d565b634e487b7160e01b8d52604160045260248dfd5b3461015b57602036600319011261015b576001600160a01b036110ed61187f565b166000526001602052602060ff600560406000200154166040519015158152f35b3461015b5761010036600319011261015b576024356001600160401b03811161015b5761113f903690600401611852565b906064356001600160401b03811161015b5761115f903690600401611852565b9060a4356001600160401b03811161015b5761117f903690600401611852565b9460e435926001600160401b03841161015b576111e46111f4936111dc6111d46111ec946111cc6111c46111ba6111fc9b3690600401611852565b9d909936916119b9565b600435611d6b565b9936916119b9565b604435611d6b565b9836916119b9565b608435611d6b565b9436916119b9565b60c435611d6b565b9061120e611208611c03565b85611ce4565b5033600052600160205260ff600560406000200154161592604051916112338361197c565b808352856020840152816040840152836060840152426080840152600160a08401526020956040516112658882611998565b6000815260c0850152600060e0850152600061010085015260006101208501526040516112928882611998565b600081526101408501526000610160850152600061018085015260046101a085015233600052600187526040600020845181556020850151600182015560408501516002820155606085015160038201556080850151600482015561130c60a08601511515600583019060ff801983541691151516179055565b60c08501518051906001600160401b038211610838576113338261064760068601546119ff565b8990601f831160011461153a5761136292916000918361152f5750508160011b916000199060031b1c19161790565b60068201555b60e08501516007820155610100850151600882015561139d6101208601511515600983019060ff801983541691151516179055565b600a81016101408601518051906001600160401b038211610838576113c682610e7485546119ff565b8a90601f83116001146114c35791806113fa92600b9695946000926114b85750508160011b916000199060031b1c19161790565b90555b0163ffffffff61016086015116928154976101a067ffffffff000000006101808901518c1b169701519260058410156107a55761148f99611488986114889760ff60401b6114889760401b169268ffffffffffffffffff191617171790556114aa575b61146a3382611e9e565b6114743384611e9e565b61147e3386611e9e565b6114883388611e9e565b3090611e9e565b600080516020611f4a833981519152604051914283523392a2005b6114b333611a8b565b611460565b015190508d8061066b565b60008481528c8120929190601f198516908e5b828210611517575050916001939185600b98979694106114fe575b505050811b0190556113fd565b015160001960f88460031b161c191690558c80806114f1565b806001869782949787015181550196019401906114d6565b015190508b8061066b565b90601f19831691600685016000528b6000209260005b8d828210611591575050908460019594939210611578575b505050811b016006820155611368565b015160001960f88460031b161c191690558a8080611568565b6001859682939686015181550195019301611550565b3461015b57600036600319011261015b573360005260016020526115d560ff60056040600020015416611906565b33600052600160205260206115fa604060002060016115f2611c03565b910154611ce4565b604051908152f35b3461015b57600036600319011261015b5760025460009060005b8181106117175750600181111561170c5760009160015b8281106116915750600019820182811161167b5780156116655760609304905b60405192835260208301526040820152f35b634e487b7160e01b600052601260045260246000fd5b634e487b7160e01b600052601160045260246000fd5b92600019840184811161167b576116a79061194b565b60018060a01b0391549060031b1c1660005260016020526004604060002001546116d08561194b565b60018060a01b0391549060031b1c16600052600160205260046040600020015490810390811161167b57810180911161167b5792600101611633565b606091600090611653565b6117208161194b565b60018060a01b0391549060031b1c16600052600160205260ff60096040600020015416611750575b60010161161c565b91600019811461167b5760010191611748565b3461015b57600036600319011261015b5733156117b35733600052600160205261179760ff60056040600020015416611906565b604051428152600080516020611f4a83398151915260203392a2005b60405162461bcd60e51b815260206004820152600e60248201526d24b73b30b634b21031b0b63632b960911b6044820152606490fd5b3461015b57602036600319011261015b57600435600581101561015b576000526000602052602063ffffffff60406000205416604051908152f35b3461015b57600036600319011261015b57602090336000526001825260ff6005604060002001541615158152f35b9181601f8401121561015b578235916001600160401b03831161015b576020838186019501011161015b57565b600435906001600160a01b038216820361015b57565b919082519283825260005b8481106118c1575050826000602080949584010152601f8019910116010190565b806020809284010151828286010152016118a0565b9181601f8401121561015b578235916001600160401b03831161015b576020808501948460051b01011161015b57565b1561190d57565b60405162461bcd60e51b8152602060048201526016602482015275105d1a1b195d19481b9bdd081c9959da5cdd195c995960521b6044820152606490fd5b60025481101561196657600260005260206000200190600090565b634e487b7160e01b600052603260045260246000fd5b6101c081019081106001600160401b0382111761083857604052565b90601f801991011681019081106001600160401b0382111761083857604052565b9291926001600160401b03821161083857604051916119e2601f8201601f191660200184611998565b82948184528183011161015b578281602093846000960137010152565b90600182811c92168015611a2f575b6020831014611a1957565b634e487b7160e01b600052602260045260246000fd5b91607f1691611a0e565b601f8211611a4657505050565b6000526020600020906020601f840160051c83019310611a81575b601f0160051c01905b818110611a75575050565b60008155600101611a6a565b9091508190611a61565b6002546801000000000000000081101561083857600181016002556000600254821015611af757600290527f405787fa12a823e0f2b7631cc41b3ba8828b3321ca811111fa75cd3aa3bb5ace0180546001600160a01b0319166001600160a01b03909216919091179055565b634e487b7160e01b81526032600452602490fd5b9060405191826000825492611b1f846119ff565b8084529360018116908115611b8d5750600114611b46575b50611b4492500383611998565b565b90506000929192526020600020906000915b818310611b71575050906020611b449282010138611b37565b6020919350806001915483858901015201910190918492611b58565b905060209250611b4494915060ff191682840152151560051b82010138611b37565b15611bb657565b60405162461bcd60e51b8152602060048201526015602482015274082e4e4c2f240d8cadccee8d040dad2e6dac2e8c6d605b1b6044820152606490fd5b91908110156119665760051b0190565b6000602060018060a01b03600080516020611f2a8339815191525416604460405180948193639cd07acb60e01b8352600e6004840152600460248401525af1908115611c8357600091611c54575090565b90506020813d602011611c7b575b81611c6f60209383611998565b8101031261015b575190565b3d9150611c62565b6040513d6000823e3d90fd5b600080516020611f2a83398151915254604051639cd07acb60e01b81526000600480830182905260248301529091602091839160449183916001600160a01b03165af1908115611c8357600091611c54575090565b908115611d5b575b8015611d49575b602090606460018060a01b03600080516020611f2a83398151915254169360006040519586948593631391547f60e01b8552600485015260248401528160448401525af1908115611c8357600091611c54575090565b506020611d54611c8f565b9050611cf3565b9050611d65611c8f565b90611cec565b6020611dbd9260009260018060a01b03600080516020611f2a8339815191525416908460405180978195829463196d0b9b60e01b84526004840152336024840152608060448401526084830190611895565b6004606483015203925af1918215611e91578192611e5d575b507f9e7b61f58c47dc699ac88507c4f5bb9f121c03808c5676a8078fe583e4649700546001600160a01b0316803b15611e5957604051630f8e573b60e21b8152600481018490523360248201529082908290604490829084905af18015611e4e57611e4057505090565b81611e4a91611998565b5090565b6040513d84823e3d90fd5b5080fd5b9091506020813d602011611e89575b81611e7960209383611998565b81010312611e5957519038611dd6565b3d9150611e6c565b50604051903d90823e3d90fd5b7f9e7b61f58c47dc699ac88507c4f5bb9f121c03808c5676a8078fe583e464970054600092916001600160a01b0390911690813b15611f2557604051635ca4b5b160e11b815260048101919091526001600160a01b0392909216602483015282908290604490829084905af18015611e4e57611f18575050565b81611f2291611998565b50565b8380fdfe9e7b61f58c47dc699ac88507c4f5bb9f121c03808c5676a8078fe583e46497015d2c303dc9780a257174732bf974775fd458c3cf846c9324d4693369b2ce090da2646970667358221220410271ba646c25cc4b4e6714682f64cb8a1f372da6d701234be94fa7b00dbb5e64736f6c634300081b0033",
  "linkReferences": {},
  "deployedLinkReferences": {}
}